{
  "contractName": "GuessNumber",
  "abi": [
    {
      "constant": true,
      "inputs": [],
      "name": "disputer",
      "outputs": [
        {
          "name": "",
          "type": "address"
        }
      ],
      "payable": false,
      "stateMutability": "view",
      "type": "function"
    },
    {
      "constant": true,
      "inputs": [],
      "name": "timeout",
      "outputs": [
        {
          "name": "",
          "type": "uint256"
        }
      ],
      "payable": false,
      "stateMutability": "view",
      "type": "function"
    },
    {
      "constant": true,
      "inputs": [],
      "name": "onChainState",
      "outputs": [
        {
          "name": "whoseTurn",
          "type": "address"
        },
        {
          "name": "guesser",
          "type": "address"
        },
        {
          "name": "dealer",
          "type": "address"
        },
        {
          "name": "secretHash",
          "type": "bytes32"
        },
        {
          "name": "gameStarted",
          "type": "bool"
        },
        {
          "name": "stake",
          "type": "uint256"
        },
        {
          "name": "seq",
          "type": "uint256"
        },
        {
          "name": "winner",
          "type": "address"
        },
        {
          "name": "contractAddress",
          "type": "address"
        }
      ],
      "payable": false,
      "stateMutability": "view",
      "type": "function"
    },
    {
      "inputs": [
        {
          "name": "_secretHash",
          "type": "bytes32"
        }
      ],
      "payable": true,
      "stateMutability": "payable",
      "type": "constructor"
    },
    {
      "anonymous": false,
      "inputs": [
        {
          "components": [
            {
              "name": "whoseTurn",
              "type": "address"
            },
            {
              "name": "guesser",
              "type": "address"
            },
            {
              "name": "dealer",
              "type": "address"
            },
            {
              "name": "clues",
              "type": "bool[5]"
            },
            {
              "name": "guesses",
              "type": "uint8[5]"
            },
            {
              "name": "secretHash",
              "type": "bytes32"
            },
            {
              "name": "gameStarted",
              "type": "bool"
            },
            {
              "name": "stake",
              "type": "uint256"
            },
            {
              "name": "seq",
              "type": "uint256"
            },
            {
              "name": "winner",
              "type": "address"
            },
            {
              "name": "contractAddress",
              "type": "address"
            }
          ],
          "indexed": false,
          "name": "gameState",
          "type": "tuple"
        }
      ],
      "name": "AcceptGame",
      "type": "event"
    },
    {
      "anonymous": false,
      "inputs": [
        {
          "components": [
            {
              "name": "whoseTurn",
              "type": "address"
            },
            {
              "name": "guesser",
              "type": "address"
            },
            {
              "name": "dealer",
              "type": "address"
            },
            {
              "name": "clues",
              "type": "bool[5]"
            },
            {
              "name": "guesses",
              "type": "uint8[5]"
            },
            {
              "name": "secretHash",
              "type": "bytes32"
            },
            {
              "name": "gameStarted",
              "type": "bool"
            },
            {
              "name": "stake",
              "type": "uint256"
            },
            {
              "name": "seq",
              "type": "uint256"
            },
            {
              "name": "winner",
              "type": "address"
            },
            {
              "name": "contractAddress",
              "type": "address"
            }
          ],
          "indexed": false,
          "name": "gameState",
          "type": "tuple"
        },
        {
          "indexed": false,
          "name": "starter",
          "type": "address"
        }
      ],
      "name": "StartDispute",
      "type": "event"
    },
    {
      "anonymous": false,
      "inputs": [
        {
          "components": [
            {
              "name": "whoseTurn",
              "type": "address"
            },
            {
              "name": "guesser",
              "type": "address"
            },
            {
              "name": "dealer",
              "type": "address"
            },
            {
              "name": "clues",
              "type": "bool[5]"
            },
            {
              "name": "guesses",
              "type": "uint8[5]"
            },
            {
              "name": "secretHash",
              "type": "bytes32"
            },
            {
              "name": "gameStarted",
              "type": "bool"
            },
            {
              "name": "stake",
              "type": "uint256"
            },
            {
              "name": "seq",
              "type": "uint256"
            },
            {
              "name": "winner",
              "type": "address"
            },
            {
              "name": "contractAddress",
              "type": "address"
            }
          ],
          "indexed": false,
          "name": "gameState",
          "type": "tuple"
        }
      ],
      "name": "EndDispute",
      "type": "event"
    },
    {
      "anonymous": false,
      "inputs": [
        {
          "indexed": false,
          "name": "newTimeout",
          "type": "uint256"
        },
        {
          "indexed": false,
          "name": "whoseTurn",
          "type": "address"
        }
      ],
      "name": "UpdateTimeout",
      "type": "event"
    },
    {
      "constant": false,
      "inputs": [
        {
          "components": [
            {
              "name": "guess",
              "type": "uint8"
            },
            {
              "name": "clue",
              "type": "bool"
            },
            {
              "name": "secret",
              "type": "string"
            },
            {
              "name": "actionType",
              "type": "uint8"
            },
            {
              "name": "sender",
              "type": "address"
            }
          ],
          "name": "action",
          "type": "tuple"
        }
      ],
      "name": "applyActionToChainState",
      "outputs": [],
      "payable": false,
      "stateMutability": "nonpayable",
      "type": "function"
    },
    {
      "constant": true,
      "inputs": [],
      "name": "getOnChainState",
      "outputs": [
        {
          "components": [
            {
              "name": "whoseTurn",
              "type": "address"
            },
            {
              "name": "guesser",
              "type": "address"
            },
            {
              "name": "dealer",
              "type": "address"
            },
            {
              "name": "clues",
              "type": "bool[5]"
            },
            {
              "name": "guesses",
              "type": "uint8[5]"
            },
            {
              "name": "secretHash",
              "type": "bytes32"
            },
            {
              "name": "gameStarted",
              "type": "bool"
            },
            {
              "name": "stake",
              "type": "uint256"
            },
            {
              "name": "seq",
              "type": "uint256"
            },
            {
              "name": "winner",
              "type": "address"
            },
            {
              "name": "contractAddress",
              "type": "address"
            }
          ],
          "name": "",
          "type": "tuple"
        }
      ],
      "payable": false,
      "stateMutability": "view",
      "type": "function"
    },
    {
      "constant": true,
      "inputs": [
        {
          "components": [
            {
              "name": "whoseTurn",
              "type": "address"
            },
            {
              "name": "guesser",
              "type": "address"
            },
            {
              "name": "dealer",
              "type": "address"
            },
            {
              "name": "clues",
              "type": "bool[5]"
            },
            {
              "name": "guesses",
              "type": "uint8[5]"
            },
            {
              "name": "secretHash",
              "type": "bytes32"
            },
            {
              "name": "gameStarted",
              "type": "bool"
            },
            {
              "name": "stake",
              "type": "uint256"
            },
            {
              "name": "seq",
              "type": "uint256"
            },
            {
              "name": "winner",
              "type": "address"
            },
            {
              "name": "contractAddress",
              "type": "address"
            }
          ],
          "name": "gameState",
          "type": "tuple"
        }
      ],
      "name": "stateToFullDigest",
      "outputs": [
        {
          "name": "",
          "type": "bytes32"
        }
      ],
      "payable": false,
      "stateMutability": "pure",
      "type": "function"
    },
    {
      "constant": true,
      "inputs": [
        {
          "components": [
            {
              "name": "whoseTurn",
              "type": "address"
            },
            {
              "name": "guesser",
              "type": "address"
            },
            {
              "name": "dealer",
              "type": "address"
            },
            {
              "name": "clues",
              "type": "bool[5]"
            },
            {
              "name": "guesses",
              "type": "uint8[5]"
            },
            {
              "name": "secretHash",
              "type": "bytes32"
            },
            {
              "name": "gameStarted",
              "type": "bool"
            },
            {
              "name": "stake",
              "type": "uint256"
            },
            {
              "name": "seq",
              "type": "uint256"
            },
            {
              "name": "winner",
              "type": "address"
            },
            {
              "name": "contractAddress",
              "type": "address"
            }
          ],
          "name": "gameState",
          "type": "tuple"
        }
      ],
      "name": "stateToHash",
      "outputs": [
        {
          "name": "",
          "type": "bytes32"
        }
      ],
      "payable": false,
      "stateMutability": "pure",
      "type": "function"
    },
    {
      "constant": false,
      "inputs": [
        {
          "components": [
            {
              "name": "whoseTurn",
              "type": "address"
            },
            {
              "name": "guesser",
              "type": "address"
            },
            {
              "name": "dealer",
              "type": "address"
            },
            {
              "name": "clues",
              "type": "bool[5]"
            },
            {
              "name": "guesses",
              "type": "uint8[5]"
            },
            {
              "name": "secretHash",
              "type": "bytes32"
            },
            {
              "name": "gameStarted",
              "type": "bool"
            },
            {
              "name": "stake",
              "type": "uint256"
            },
            {
              "name": "seq",
              "type": "uint256"
            },
            {
              "name": "winner",
              "type": "address"
            },
            {
              "name": "contractAddress",
              "type": "address"
            }
          ],
          "name": "gameState",
          "type": "tuple"
        },
        {
          "name": "sig",
          "type": "bytes"
        },
        {
          "components": [
            {
              "name": "guess",
              "type": "uint8"
            },
            {
              "name": "clue",
              "type": "bool"
            },
            {
              "name": "secret",
              "type": "string"
            },
            {
              "name": "actionType",
              "type": "uint8"
            },
            {
              "name": "sender",
              "type": "address"
            }
          ],
          "name": "action",
          "type": "tuple"
        }
      ],
      "name": "jumpToStateOnChain",
      "outputs": [
        {
          "name": "",
          "type": "bool"
        }
      ],
      "payable": false,
      "stateMutability": "nonpayable",
      "type": "function"
    },
    {
      "constant": false,
      "inputs": [],
      "name": "claimTimeout",
      "outputs": [],
      "payable": true,
      "stateMutability": "payable",
      "type": "function"
    },
    {
      "constant": false,
      "inputs": [
        {
          "name": "s",
          "type": "string"
        }
      ],
      "name": "test",
      "outputs": [
        {
          "name": "",
          "type": "bytes32"
        }
      ],
      "payable": false,
      "stateMutability": "nonpayable",
      "type": "function"
    },
    {
      "constant": false,
      "inputs": [],
      "name": "testGetClues",
      "outputs": [
        {
          "name": "",
          "type": "bool[5]"
        }
      ],
      "payable": false,
      "stateMutability": "nonpayable",
      "type": "function"
    },
    {
      "constant": true,
      "inputs": [
        {
          "name": "s",
          "type": "string"
        }
      ],
      "name": "stringToUint",
      "outputs": [
        {
          "name": "result",
          "type": "uint256"
        }
      ],
      "payable": false,
      "stateMutability": "view",
      "type": "function"
    },
    {
      "constant": false,
      "inputs": [],
      "name": "acceptGame",
      "outputs": [],
      "payable": true,
      "stateMutability": "payable",
      "type": "function"
    },
    {
      "constant": true,
      "inputs": [
        {
          "components": [
            {
              "name": "whoseTurn",
              "type": "address"
            },
            {
              "name": "guesser",
              "type": "address"
            },
            {
              "name": "dealer",
              "type": "address"
            },
            {
              "name": "clues",
              "type": "bool[5]"
            },
            {
              "name": "guesses",
              "type": "uint8[5]"
            },
            {
              "name": "secretHash",
              "type": "bytes32"
            },
            {
              "name": "gameStarted",
              "type": "bool"
            },
            {
              "name": "stake",
              "type": "uint256"
            },
            {
              "name": "seq",
              "type": "uint256"
            },
            {
              "name": "winner",
              "type": "address"
            },
            {
              "name": "contractAddress",
              "type": "address"
            }
          ],
          "name": "gameState",
          "type": "tuple"
        },
        {
          "components": [
            {
              "name": "guess",
              "type": "uint8"
            },
            {
              "name": "clue",
              "type": "bool"
            },
            {
              "name": "secret",
              "type": "string"
            },
            {
              "name": "actionType",
              "type": "uint8"
            },
            {
              "name": "sender",
              "type": "address"
            }
          ],
          "name": "action",
          "type": "tuple"
        }
      ],
      "name": "applyAction",
      "outputs": [
        {
          "components": [
            {
              "name": "whoseTurn",
              "type": "address"
            },
            {
              "name": "guesser",
              "type": "address"
            },
            {
              "name": "dealer",
              "type": "address"
            },
            {
              "name": "clues",
              "type": "bool[5]"
            },
            {
              "name": "guesses",
              "type": "uint8[5]"
            },
            {
              "name": "secretHash",
              "type": "bytes32"
            },
            {
              "name": "gameStarted",
              "type": "bool"
            },
            {
              "name": "stake",
              "type": "uint256"
            },
            {
              "name": "seq",
              "type": "uint256"
            },
            {
              "name": "winner",
              "type": "address"
            },
            {
              "name": "contractAddress",
              "type": "address"
            }
          ],
          "name": "",
          "type": "tuple"
        }
      ],
      "payable": false,
      "stateMutability": "view",
      "type": "function"
    },
    {
      "constant": true,
      "inputs": [
        {
          "components": [
            {
              "name": "whoseTurn",
              "type": "address"
            },
            {
              "name": "guesser",
              "type": "address"
            },
            {
              "name": "dealer",
              "type": "address"
            },
            {
              "name": "clues",
              "type": "bool[5]"
            },
            {
              "name": "guesses",
              "type": "uint8[5]"
            },
            {
              "name": "secretHash",
              "type": "bytes32"
            },
            {
              "name": "gameStarted",
              "type": "bool"
            },
            {
              "name": "stake",
              "type": "uint256"
            },
            {
              "name": "seq",
              "type": "uint256"
            },
            {
              "name": "winner",
              "type": "address"
            },
            {
              "name": "contractAddress",
              "type": "address"
            }
          ],
          "name": "gameState",
          "type": "tuple"
        },
        {
          "components": [
            {
              "name": "guess",
              "type": "uint8"
            },
            {
              "name": "clue",
              "type": "bool"
            },
            {
              "name": "secret",
              "type": "string"
            },
            {
              "name": "actionType",
              "type": "uint8"
            },
            {
              "name": "sender",
              "type": "address"
            }
          ],
          "name": "action",
          "type": "tuple"
        }
      ],
      "name": "submitGuess",
      "outputs": [
        {
          "components": [
            {
              "name": "whoseTurn",
              "type": "address"
            },
            {
              "name": "guesser",
              "type": "address"
            },
            {
              "name": "dealer",
              "type": "address"
            },
            {
              "name": "clues",
              "type": "bool[5]"
            },
            {
              "name": "guesses",
              "type": "uint8[5]"
            },
            {
              "name": "secretHash",
              "type": "bytes32"
            },
            {
              "name": "gameStarted",
              "type": "bool"
            },
            {
              "name": "stake",
              "type": "uint256"
            },
            {
              "name": "seq",
              "type": "uint256"
            },
            {
              "name": "winner",
              "type": "address"
            },
            {
              "name": "contractAddress",
              "type": "address"
            }
          ],
          "name": "",
          "type": "tuple"
        }
      ],
      "payable": false,
      "stateMutability": "pure",
      "type": "function"
    },
    {
      "constant": true,
      "inputs": [
        {
          "components": [
            {
              "name": "whoseTurn",
              "type": "address"
            },
            {
              "name": "guesser",
              "type": "address"
            },
            {
              "name": "dealer",
              "type": "address"
            },
            {
              "name": "clues",
              "type": "bool[5]"
            },
            {
              "name": "guesses",
              "type": "uint8[5]"
            },
            {
              "name": "secretHash",
              "type": "bytes32"
            },
            {
              "name": "gameStarted",
              "type": "bool"
            },
            {
              "name": "stake",
              "type": "uint256"
            },
            {
              "name": "seq",
              "type": "uint256"
            },
            {
              "name": "winner",
              "type": "address"
            },
            {
              "name": "contractAddress",
              "type": "address"
            }
          ],
          "name": "gameState",
          "type": "tuple"
        },
        {
          "components": [
            {
              "name": "guess",
              "type": "uint8"
            },
            {
              "name": "clue",
              "type": "bool"
            },
            {
              "name": "secret",
              "type": "string"
            },
            {
              "name": "actionType",
              "type": "uint8"
            },
            {
              "name": "sender",
              "type": "address"
            }
          ],
          "name": "action",
          "type": "tuple"
        }
      ],
      "name": "submitClue",
      "outputs": [
        {
          "components": [
            {
              "name": "whoseTurn",
              "type": "address"
            },
            {
              "name": "guesser",
              "type": "address"
            },
            {
              "name": "dealer",
              "type": "address"
            },
            {
              "name": "clues",
              "type": "bool[5]"
            },
            {
              "name": "guesses",
              "type": "uint8[5]"
            },
            {
              "name": "secretHash",
              "type": "bytes32"
            },
            {
              "name": "gameStarted",
              "type": "bool"
            },
            {
              "name": "stake",
              "type": "uint256"
            },
            {
              "name": "seq",
              "type": "uint256"
            },
            {
              "name": "winner",
              "type": "address"
            },
            {
              "name": "contractAddress",
              "type": "address"
            }
          ],
          "name": "",
          "type": "tuple"
        }
      ],
      "payable": false,
      "stateMutability": "pure",
      "type": "function"
    },
    {
      "constant": false,
      "inputs": [
        {
          "components": [
            {
              "name": "whoseTurn",
              "type": "address"
            },
            {
              "name": "guesser",
              "type": "address"
            },
            {
              "name": "dealer",
              "type": "address"
            },
            {
              "name": "clues",
              "type": "bool[5]"
            },
            {
              "name": "guesses",
              "type": "uint8[5]"
            },
            {
              "name": "secretHash",
              "type": "bytes32"
            },
            {
              "name": "gameStarted",
              "type": "bool"
            },
            {
              "name": "stake",
              "type": "uint256"
            },
            {
              "name": "seq",
              "type": "uint256"
            },
            {
              "name": "winner",
              "type": "address"
            },
            {
              "name": "contractAddress",
              "type": "address"
            }
          ],
          "name": "gameState",
          "type": "tuple"
        },
        {
          "components": [
            {
              "name": "guess",
              "type": "uint8"
            },
            {
              "name": "clue",
              "type": "bool"
            },
            {
              "name": "secret",
              "type": "string"
            },
            {
              "name": "actionType",
              "type": "uint8"
            },
            {
              "name": "sender",
              "type": "address"
            }
          ],
          "name": "action",
          "type": "tuple"
        }
      ],
      "name": "reveal",
      "outputs": [
        {
          "components": [
            {
              "name": "whoseTurn",
              "type": "address"
            },
            {
              "name": "guesser",
              "type": "address"
            },
            {
              "name": "dealer",
              "type": "address"
            },
            {
              "name": "clues",
              "type": "bool[5]"
            },
            {
              "name": "guesses",
              "type": "uint8[5]"
            },
            {
              "name": "secretHash",
              "type": "bytes32"
            },
            {
              "name": "gameStarted",
              "type": "bool"
            },
            {
              "name": "stake",
              "type": "uint256"
            },
            {
              "name": "seq",
              "type": "uint256"
            },
            {
              "name": "winner",
              "type": "address"
            },
            {
              "name": "contractAddress",
              "type": "address"
            }
          ],
          "name": "",
          "type": "tuple"
        }
      ],
      "payable": false,
      "stateMutability": "nonpayable",
      "type": "function"
    },
    {
      "constant": true,
      "inputs": [
        {
          "components": [
            {
              "name": "whoseTurn",
              "type": "address"
            },
            {
              "name": "guesser",
              "type": "address"
            },
            {
              "name": "dealer",
              "type": "address"
            },
            {
              "name": "clues",
              "type": "bool[5]"
            },
            {
              "name": "guesses",
              "type": "uint8[5]"
            },
            {
              "name": "secretHash",
              "type": "bytes32"
            },
            {
              "name": "gameStarted",
              "type": "bool"
            },
            {
              "name": "stake",
              "type": "uint256"
            },
            {
              "name": "seq",
              "type": "uint256"
            },
            {
              "name": "winner",
              "type": "address"
            },
            {
              "name": "contractAddress",
              "type": "address"
            }
          ],
          "name": "gameState",
          "type": "tuple"
        },
        {
          "name": "player",
          "type": "address"
        }
      ],
      "name": "opponentOf",
      "outputs": [
        {
          "name": "",
          "type": "address"
        }
      ],
      "payable": false,
      "stateMutability": "pure",
      "type": "function"
    }
  ],
  "bytecode": "0x608060405260405160208062004b9283398101806040526200002591908101906200059d565b6000806000341115156200003857600080fd5b610160604051908101604052803373ffffffffffffffffffffffffffffffffffffffff168152602001600073ffffffffffffffffffffffffffffffffffffffff1681526020013373ffffffffffffffffffffffffffffffffffffffff16815260200182600580602002604051908101604052809291908260058015620000f9576020028201916000905b82829054906101000a900460ff16151581526020019060010190602082600001049283019260010382029150808411620000c25790505b505050505081526020018360058060200260405190810160405280929190826005801562000163576020028201916000905b82829054906101000a900460ff1660ff16815260200190600101906020826000010492830192600103820291508084116200012b5790505b505050505081526020018460001916815260200160001515815260200134815260200160008152602001600073ffffffffffffffffffffffffffffffffffffffff1681526020013073ffffffffffffffffffffffffffffffffffffffff16815250600360008201518160000160006101000a81548173ffffffffffffffffffffffffffffffffffffffff021916908373ffffffffffffffffffffffffffffffffffffffff16021790555060208201518160010160006101000a81548173ffffffffffffffffffffffffffffffffffffffff021916908373ffffffffffffffffffffffffffffffffffffffff16021790555060408201518160020160006101000a81548173ffffffffffffffffffffffffffffffffffffffff021916908373ffffffffffffffffffffffffffffffffffffffff160217905550606082015181600301906005620002b4929190620003e0565b50608082015181600401906005620002ce92919062000480565b5060a0820151816005019060001916905560c08201518160060160006101000a81548160ff02191690831515021790555060e0820151816007015561010082015181600801556101208201518160090160006101000a81548173ffffffffffffffffffffffffffffffffffffffff021916908373ffffffffffffffffffffffffffffffffffffffff16021790555061014082015181600a0160006101000a81548173ffffffffffffffffffffffffffffffffffffffff021916908373ffffffffffffffffffffffffffffffffffffffff160217905550905050610e106001819055507fffffffffffffffffffffffffffffffffffffffffffffffffffffffffffffffff600281905550505050620005d3565b826005601f016020900481019282156200046d5791602002820160005b838211156200043c57835183826101000a81548160ff0219169083151502179055509260200192600101602081600001049283019260010302620003fd565b80156200046b5782816101000a81549060ff02191690556001016020816000010492830192600103026200043c565b505b5090506200047c919062000521565b5090565b826005601f016020900481019282156200050e5791602002820160005b83821115620004dd57835183826101000a81548160ff021916908360ff16021790555092602001926001016020816000010492830192600103026200049d565b80156200050c5782816101000a81549060ff0219169055600101602081600001049283019260010302620004dd565b505b5090506200051d919062000554565b5090565b6200055191905b808211156200054d57600081816101000a81549060ff02191690555060010162000528565b5090565b90565b6200058491905b808211156200058057600081816101000a81549060ff0219169055506001016200055b565b5090565b90565b6000620005958251620005c9565b905092915050565b600060208284031215620005b057600080fd5b6000620005c08482850162000587565b91505092915050565b6000819050919050565b6145af80620005e36000396000f3006080604052600436106100fc576000357c0100000000000000000000000000000000000000000000000000000000900463ffffffff1680630e1da6c314610101578063137e87891461010b57806319ae4835146101365780631b79e539146101735780631bd95155146101b057806343539c39146101ed578063472c9d211461022a5780636268e921146102675780636ac561031461027157806370dea79a1461029c5780637ddd7b28146102c75780638417c5c5146103045780639055bc6d14610337578063b5c40a2014610374578063c9ee578d146103b1578063cd9241b5146103da578063d0c1613314610417578063f9fbd55414610442575b600080fd5b61010961047f565b005b34801561011757600080fd5b5061012061096c565b60405161012d9190613e61565b60405180910390f35b34801561014257600080fd5b5061015d60048036036101589190810190613389565b6109de565b60405161016a9190613ef7565b60405180910390f35b34801561017f57600080fd5b5061019a60048036036101959190810190613389565b610a3a565b6040516101a79190613ef7565b60405180910390f35b3480156101bc57600080fd5b506101d760048036036101d2919081019061321d565b610ab0565b6040516101e49190613f5a565b60405180910390f35b3480156101f957600080fd5b50610214600480360361020f9190810190613389565b610b82565b6040516102219190613ef7565b60405180910390f35b34801561023657600080fd5b50610251600480360361024c919081019061329f565b610d14565b60405161025e9190613e97565b60405180910390f35b61026f610d98565b005b34801561027d57600080fd5b50610286610f1c565b6040516102939190613db9565b60405180910390f35b3480156102a857600080fd5b506102b1610f41565b6040516102be9190613f5a565b60405180910390f35b3480156102d357600080fd5b506102ee60048036036102e99190810190613307565b610f47565b6040516102fb9190613e7c565b60405180910390f35b34801561031057600080fd5b506103196117b6565b60405161032e99989796959493929190613dd4565b60405180910390f35b34801561034357600080fd5b5061035e600480360361035991908101906132c9565b61189f565b60405161036b9190613db9565b60405180910390f35b34801561038057600080fd5b5061039b60048036036103969190810190613389565b61193d565b6040516103a89190613ef7565b60405180910390f35b3480156103bd57600080fd5b506103d860048036036103d3919081019061325e565b611b5c565b005b3480156103e657600080fd5b5061040160048036036103fc919081019061329f565b612557565b60405161040e9190613e97565b60405180910390f35b34801561042357600080fd5b5061042c6125e2565b6040516104399190613ef7565b60405180910390f35b34801561044e57600080fd5b506104696004803603610464919081019061321d565b6128c2565b6040516104769190613e97565b60405180910390f35b600073ffffffffffffffffffffffffffffffffffffffff16600360090160009054906101000a900473ffffffffffffffffffffffffffffffffffffffff1673ffffffffffffffffffffffffffffffffffffffff161415156104df57600080fd5b6107bb600361016060405190810160405290816000820160009054906101000a900473ffffffffffffffffffffffffffffffffffffffff1673ffffffffffffffffffffffffffffffffffffffff1673ffffffffffffffffffffffffffffffffffffffff1681526020016001820160009054906101000a900473ffffffffffffffffffffffffffffffffffffffff1673ffffffffffffffffffffffffffffffffffffffff1673ffffffffffffffffffffffffffffffffffffffff1681526020016002820160009054906101000a900473ffffffffffffffffffffffffffffffffffffffff1673ffffffffffffffffffffffffffffffffffffffff1673ffffffffffffffffffffffffffffffffffffffff16815260200160038201600580602002604051908101604052809291908260058015610654576020028201916000905b82829054906101000a900460ff1615158152602001906001019060208260000104928301926001038202915080841161061e5790505b50505050508152602001600482016005806020026040519081016040528092919082600580156106bf576020028201916000905b82829054906101000a900460ff1660ff16815260200190600101906020826000010492830192600103820291508084116106885790505b505050505081526020016005820154600019166000191681526020016006820160009054906101000a900460ff1615151515815260200160078201548152602001600882015481526020016009820160009054906101000a900473ffffffffffffffffffffffffffffffffffffffff1673ffffffffffffffffffffffffffffffffffffffff1673ffffffffffffffffffffffffffffffffffffffff168152602001600a820160009054906101000a900473ffffffffffffffffffffffffffffffffffffffff1673ffffffffffffffffffffffffffffffffffffffff1673ffffffffffffffffffffffffffffffffffffffff16815250503361189f565b73ffffffffffffffffffffffffffffffffffffffff16600360000160009054906101000a900473ffffffffffffffffffffffffffffffffffffffff1673ffffffffffffffffffffffffffffffffffffffff1614151561081957600080fd5b6002544211151561082957600080fd5b33600360090160006101000a81548173ffffffffffffffffffffffffffffffffffffffff021916908373ffffffffffffffffffffffffffffffffffffffff160217905550600073ffffffffffffffffffffffffffffffffffffffff16600360090160009054906101000a900473ffffffffffffffffffffffffffffffffffffffff1673ffffffffffffffffffffffffffffffffffffffff1614151561096a57600360090160009054906101000a900473ffffffffffffffffffffffffffffffffffffffff1673ffffffffffffffffffffffffffffffffffffffff166108fc3073ffffffffffffffffffffffffffffffffffffffff16319081150290604051600060405180830381858888f1935050505015801561094a573d6000803e3d6000fd5b506000600360060160006101000a81548160ff0219169083151502179055505b565b610974612b35565b600380016005806020026040519081016040528092919082600580156109d4576020028201916000905b82829054906101000a900460ff1615158152602001906001019060208260000104928301926001038202915080841161099e5790505b5050505050905090565b6109e6612b58565b600a8361010001511015156109fa57600080fd5b816020015183606001516002856101000151811515610a1557fe5b04600581101515610a2257fe5b60200201901515908115158152505082905092915050565b610a42612b58565b6064826000015160ff16101515610a5857600080fd5b6000826000015160ff16111515610a6e57600080fd5b816000015183608001516002856101000151811515610a8957fe5b04600581101515610a9657fe5b602002019060ff16908160ff168152505082905092915050565b6000606060008084925060009350600091505b8251821015610b7a578282815181101515610ada57fe5b9060200101517f010000000000000000000000000000000000000000000000000000000000000090047f0100000000000000000000000000000000000000000000000000000000000000027f01000000000000000000000000000000000000000000000000000000000000009004905060308110158015610b5c575060398111155b15610b6d5760308103600a85020193505b8180600101925050610ac3565b505050919050565b610b8a612b58565b828260800151600073ffffffffffffffffffffffffffffffffffffffff1682610120015173ffffffffffffffffffffffffffffffffffffffff16141515610bd057600080fd5b816000015173ffffffffffffffffffffffffffffffffffffffff168173ffffffffffffffffffffffffffffffffffffffff16141515610c0e57600080fd5b8160c001511515610c1e57600080fd5b8161010001805180919060010181525050610c39828261189f565b826000019073ffffffffffffffffffffffffffffffffffffffff16908173ffffffffffffffffffffffffffffffffffffffff168152505060006002811115610c7d57fe5b84606001516002811115610c8d57fe5b1415610ca457610c9d8585610a3a565b9250610d0c565b60016002811115610cb157fe5b84606001516002811115610cc157fe5b1415610cd857610cd185856109de565b9250610d0c565b600280811115610ce457fe5b84606001516002811115610cf457fe5b1415610d0b57610d04858561193d565b9250610d0c565b5b505092915050565b600080610d2083612557565b9050610d9083610140015182604051808373ffffffffffffffffffffffffffffffffffffffff1673ffffffffffffffffffffffffffffffffffffffff166c01000000000000000000000000028152601401826000191660001916815260200192505050604051809103902061292e565b915050919050565b60015442016002819055507f1a23eba7034142d28498d58db3a315f048eb18765586b52e132480b1cb6dbaf2600254600360000160009054906101000a900473ffffffffffffffffffffffffffffffffffffffff16604051610dfb929190613f75565b60405180910390a16003600701543410151515610e1757600080fd5b600360060160009054906101000a900460ff16151515610e3657600080fd5b6001600360060160006101000a81548160ff02191690831515021790555033600360000160006101000a81548173ffffffffffffffffffffffffffffffffffffffff021916908373ffffffffffffffffffffffffffffffffffffffff16021790555033600360010160006101000a81548173ffffffffffffffffffffffffffffffffffffffff021916908373ffffffffffffffffffffffffffffffffffffffff1602179055507f4d75a833838fbf83c94202f67f967e33ff1f135fd3fa0bcc31efaa0757f798f6610f056125e2565b604051610f129190613ef7565b60405180910390a1565b6000809054906101000a900473ffffffffffffffffffffffffffffffffffffffff1681565b60025481565b60008060015442016002819055507f1a23eba7034142d28498d58db3a315f048eb18765586b52e132480b1cb6dbaf2600254600360000160009054906101000a900473ffffffffffffffffffffffffffffffffffffffff16604051610fad929190613f75565b60405180910390a1610fbe85610d14565b9050610fca853361189f565b73ffffffffffffffffffffffffffffffffffffffff16610fea828661297d565b73ffffffffffffffffffffffffffffffffffffffff1614151561100c57600080fd5b600073ffffffffffffffffffffffffffffffffffffffff1685610120015173ffffffffffffffffffffffffffffffffffffffff1614151561105057600191506116b1565b6003600801548561010001511015151561106957600080fd5b61107285610d14565b60001916611351600361016060405190810160405290816000820160009054906101000a900473ffffffffffffffffffffffffffffffffffffffff1673ffffffffffffffffffffffffffffffffffffffff1673ffffffffffffffffffffffffffffffffffffffff1681526020016001820160009054906101000a900473ffffffffffffffffffffffffffffffffffffffff1673ffffffffffffffffffffffffffffffffffffffff1673ffffffffffffffffffffffffffffffffffffffff1681526020016002820160009054906101000a900473ffffffffffffffffffffffffffffffffffffffff1673ffffffffffffffffffffffffffffffffffffffff1673ffffffffffffffffffffffffffffffffffffffff168152602001600382016005806020026040519081016040528092919082600580156111eb576020028201916000905b82829054906101000a900460ff161515815260200190600101906020826000010492830192600103820291508084116111b55790505b5050505050815260200160048201600580602002604051908101604052809291908260058015611256576020028201916000905b82829054906101000a900460ff1660ff168152602001906001019060208260000104928301926001038202915080841161121f5790505b505050505081526020016005820154600019166000191681526020016006820160009054906101000a900460ff1615151515815260200160078201548152602001600882015481526020016009820160009054906101000a900473ffffffffffffffffffffffffffffffffffffffff1673ffffffffffffffffffffffffffffffffffffffff1673ffffffffffffffffffffffffffffffffffffffff168152602001600a820160009054906101000a900473ffffffffffffffffffffffffffffffffffffffff1673ffffffffffffffffffffffffffffffffffffffff1673ffffffffffffffffffffffffffffffffffffffff1681525050610d14565b600019161415151561136257600080fd5b600073ffffffffffffffffffffffffffffffffffffffff166000809054906101000a900473ffffffffffffffffffffffffffffffffffffffff1673ffffffffffffffffffffffffffffffffffffffff1614156116085784600360008201518160000160006101000a81548173ffffffffffffffffffffffffffffffffffffffff021916908373ffffffffffffffffffffffffffffffffffffffff16021790555060208201518160010160006101000a81548173ffffffffffffffffffffffffffffffffffffffff021916908373ffffffffffffffffffffffffffffffffffffffff16021790555060408201518160020160006101000a81548173ffffffffffffffffffffffffffffffffffffffff021916908373ffffffffffffffffffffffffffffffffffffffff1602179055506060820151816003019060056114a7929190612c32565b506080820151816004019060056114bf929190612ccb565b5060a0820151816005019060001916905560c08201518160060160006101000a81548160ff02191690831515021790555060e0820151816007015561010082015181600801556101208201518160090160006101000a81548173ffffffffffffffffffffffffffffffffffffffff021916908373ffffffffffffffffffffffffffffffffffffffff16021790555061014082015181600a0160006101000a81548173ffffffffffffffffffffffffffffffffffffffff021916908373ffffffffffffffffffffffffffffffffffffffff1602179055509050503373ffffffffffffffffffffffffffffffffffffffff16600360000160009054906101000a900473ffffffffffffffffffffffffffffffffffffffff1673ffffffffffffffffffffffffffffffffffffffff1614156115fb576115fa83611b5c565b5b6116036129f4565b6116ac565b611612853361189f565b73ffffffffffffffffffffffffffffffffffffffff166000809054906101000a900473ffffffffffffffffffffffffffffffffffffffff1673ffffffffffffffffffffffffffffffffffffffff1614156116ab5733600360090160006101000a81548173ffffffffffffffffffffffffffffffffffffffff021916908373ffffffffffffffffffffffffffffffffffffffff1602179055505b5b600191505b600073ffffffffffffffffffffffffffffffffffffffff16600360090160009054906101000a900473ffffffffffffffffffffffffffffffffffffffff1673ffffffffffffffffffffffffffffffffffffffff161415156117ae57600360090160009054906101000a900473ffffffffffffffffffffffffffffffffffffffff1673ffffffffffffffffffffffffffffffffffffffff166108fc3073ffffffffffffffffffffffffffffffffffffffff16319081150290604051600060405180830381858888f1935050505015801561178e573d6000803e3d6000fd5b506000600360060160006101000a81548160ff0219169083151502179055505b509392505050565b60038060000160009054906101000a900473ffffffffffffffffffffffffffffffffffffffff16908060010160009054906101000a900473ffffffffffffffffffffffffffffffffffffffff16908060020160009054906101000a900473ffffffffffffffffffffffffffffffffffffffff16908060050154908060060160009054906101000a900460ff16908060070154908060080154908060090160009054906101000a900473ffffffffffffffffffffffffffffffffffffffff169080600a0160009054906101000a900473ffffffffffffffffffffffffffffffffffffffff16905089565b6000826040015173ffffffffffffffffffffffffffffffffffffffff168273ffffffffffffffffffffffffffffffffffffffff1614156118e55782602001519050611937565b826020015173ffffffffffffffffffffffffffffffffffffffff168273ffffffffffffffffffffffffffffffffffffffff1614156119295782604001519050611937565b6000151561193657600080fd5b5b92915050565b611945612b58565b6000806000808660a001516000191686604001516040518082805190602001908083835b60208310151561198e5780518252602082019150602081019050602083039250611969565b6001836020036101000a038019825116818451168082178552505050505050905001915050604051809103902060001916141515611a11576119d487876080015161189f565b87610120019073ffffffffffffffffffffffffffffffffffffffff16908173ffffffffffffffffffffffffffffffffffffffff1681525050611b4e565b6064611a208760400151610ab0565b811515611a2957fe5b069350600090505b8660800151506005811015611b4d57866080015181600581101515611a5257fe5b60200201519250866060015181600581101515611a6b57fe5b60200201519150838360ff161480611a86575060008360ff16145b15611ad057866020015187610120019073ffffffffffffffffffffffffffffffffffffffff16908173ffffffffffffffffffffffffffffffffffffffff1681525050869450611b52565b838360ff16108015611adf5750815b80611af65750838360ff16118015611af5575081155b5b15611b4057866020015187610120019073ffffffffffffffffffffffffffffffffffffffff16908173ffffffffffffffffffffffffffffffffffffffff1681525050869450611b52565b8080600101915050611a31565b5b8694505b5050505092915050565b60015442016002819055507f1a23eba7034142d28498d58db3a315f048eb18765586b52e132480b1cb6dbaf2600254600360000160009054906101000a900473ffffffffffffffffffffffffffffffffffffffff16604051611bbf929190613f75565b60405180910390a133816080019073ffffffffffffffffffffffffffffffffffffffff16908173ffffffffffffffffffffffffffffffffffffffff1681525050611edb600361016060405190810160405290816000820160009054906101000a900473ffffffffffffffffffffffffffffffffffffffff1673ffffffffffffffffffffffffffffffffffffffff1673ffffffffffffffffffffffffffffffffffffffff1681526020016001820160009054906101000a900473ffffffffffffffffffffffffffffffffffffffff1673ffffffffffffffffffffffffffffffffffffffff1673ffffffffffffffffffffffffffffffffffffffff1681526020016002820160009054906101000a900473ffffffffffffffffffffffffffffffffffffffff1673ffffffffffffffffffffffffffffffffffffffff1673ffffffffffffffffffffffffffffffffffffffff16815260200160038201600580602002604051908101604052809291908260058015611d74576020028201916000905b82829054906101000a900460ff16151581526020019060010190602082600001049283019260010382029150808411611d3e5790505b5050505050815260200160048201600580602002604051908101604052809291908260058015611ddf576020028201916000905b82829054906101000a900460ff1660ff1681526020019060010190602082600001049283019260010382029150808411611da85790505b505050505081526020016005820154600019166000191681526020016006820160009054906101000a900460ff1615151515815260200160078201548152602001600882015481526020016009820160009054906101000a900473ffffffffffffffffffffffffffffffffffffffff1673ffffffffffffffffffffffffffffffffffffffff1673ffffffffffffffffffffffffffffffffffffffff168152602001600a820160009054906101000a900473ffffffffffffffffffffffffffffffffffffffff1673ffffffffffffffffffffffffffffffffffffffff1673ffffffffffffffffffffffffffffffffffffffff168152505082610b82565b600360008201518160000160006101000a81548173ffffffffffffffffffffffffffffffffffffffff021916908373ffffffffffffffffffffffffffffffffffffffff16021790555060208201518160010160006101000a81548173ffffffffffffffffffffffffffffffffffffffff021916908373ffffffffffffffffffffffffffffffffffffffff16021790555060408201518160020160006101000a81548173ffffffffffffffffffffffffffffffffffffffff021916908373ffffffffffffffffffffffffffffffffffffffff160217905550606082015181600301906005611fc9929190612c32565b50608082015181600401906005611fe1929190612ccb565b5060a0820151816005019060001916905560c08201518160060160006101000a81548160ff02191690831515021790555060e0820151816007015561010082015181600801556101208201518160090160006101000a81548173ffffffffffffffffffffffffffffffffffffffff021916908373ffffffffffffffffffffffffffffffffffffffff16021790555061014082015181600a0160006101000a81548173ffffffffffffffffffffffffffffffffffffffff021916908373ffffffffffffffffffffffffffffffffffffffff160217905550905050612396600361016060405190810160405290816000820160009054906101000a900473ffffffffffffffffffffffffffffffffffffffff1673ffffffffffffffffffffffffffffffffffffffff1673ffffffffffffffffffffffffffffffffffffffff1681526020016001820160009054906101000a900473ffffffffffffffffffffffffffffffffffffffff1673ffffffffffffffffffffffffffffffffffffffff1673ffffffffffffffffffffffffffffffffffffffff1681526020016002820160009054906101000a900473ffffffffffffffffffffffffffffffffffffffff1673ffffffffffffffffffffffffffffffffffffffff1673ffffffffffffffffffffffffffffffffffffffff1681526020016003820160058060200260405190810160405280929190826005801561222f576020028201916000905b82829054906101000a900460ff161515815260200190600101906020826000010492830192600103820291508084116121f95790505b505050505081526020016004820160058060200260405190810160405280929190826005801561229a576020028201916000905b82829054906101000a900460ff1660ff16815260200190600101906020826000010492830192600103820291508084116122635790505b505050505081526020016005820154600019166000191681526020016006820160009054906101000a900460ff1615151515815260200160078201548152602001600882015481526020016009820160009054906101000a900473ffffffffffffffffffffffffffffffffffffffff1673ffffffffffffffffffffffffffffffffffffffff1673ffffffffffffffffffffffffffffffffffffffff168152602001600a820160009054906101000a900473ffffffffffffffffffffffffffffffffffffffff1673ffffffffffffffffffffffffffffffffffffffff1673ffffffffffffffffffffffffffffffffffffffff16815250503361189f565b73ffffffffffffffffffffffffffffffffffffffff166000809054906101000a900473ffffffffffffffffffffffffffffffffffffffff1673ffffffffffffffffffffffffffffffffffffffff1614156123f7576123f2612a76565b612457565b600073ffffffffffffffffffffffffffffffffffffffff166000809054906101000a900473ffffffffffffffffffffffffffffffffffffffff1673ffffffffffffffffffffffffffffffffffffffff161415612456576124556129f4565b5b5b600073ffffffffffffffffffffffffffffffffffffffff16600360090160009054906101000a900473ffffffffffffffffffffffffffffffffffffffff1673ffffffffffffffffffffffffffffffffffffffff1614151561255457600360090160009054906101000a900473ffffffffffffffffffffffffffffffffffffffff1673ffffffffffffffffffffffffffffffffffffffff166108fc3073ffffffffffffffffffffffffffffffffffffffff16319081150290604051600060405180830381858888f19350505050158015612534573d6000803e3d6000fd5b506000600360060160006101000a81548160ff0219169083151502179055505b50565b60008160405160200161256a9190613ef7565b6040516020818303038152906040526040518082805190602001908083835b6020831015156125ae5780518252602082019150602081019050602083039250612589565b6001836020036101000a03801982511681845116808217855250505050505090500191505060405180910390209050919050565b6125ea612b58565b600361016060405190810160405290816000820160009054906101000a900473ffffffffffffffffffffffffffffffffffffffff1673ffffffffffffffffffffffffffffffffffffffff1673ffffffffffffffffffffffffffffffffffffffff1681526020016001820160009054906101000a900473ffffffffffffffffffffffffffffffffffffffff1673ffffffffffffffffffffffffffffffffffffffff1673ffffffffffffffffffffffffffffffffffffffff1681526020016002820160009054906101000a900473ffffffffffffffffffffffffffffffffffffffff1673ffffffffffffffffffffffffffffffffffffffff1673ffffffffffffffffffffffffffffffffffffffff1681526020016003820160058060200260405190810160405280929190826005801561275c576020028201916000905b82829054906101000a900460ff161515815260200190600101906020826000010492830192600103820291508084116127265790505b50505050508152602001600482016005806020026040519081016040528092919082600580156127c7576020028201916000905b82829054906101000a900460ff1660ff16815260200190600101906020826000010492830192600103820291508084116127905790505b505050505081526020016005820154600019166000191681526020016006820160009054906101000a900460ff1615151515815260200160078201548152602001600882015481526020016009820160009054906101000a900473ffffffffffffffffffffffffffffffffffffffff1673ffffffffffffffffffffffffffffffffffffffff1673ffffffffffffffffffffffffffffffffffffffff168152602001600a820160009054906101000a900473ffffffffffffffffffffffffffffffffffffffff1673ffffffffffffffffffffffffffffffffffffffff1673ffffffffffffffffffffffffffffffffffffffff1681525050905090565b6000816040518082805190602001908083835b6020831015156128fa57805182526020820191506020810190506020830392506128d5565b6001836020036101000a03801982511681845116808217855250505050505090500191505060405180910390209050919050565b60008160405180807f19457468657265756d205369676e6564204d6573736167653a0a333200000000815250601c01826000191660001916815260200191505060405180910390209050919050565b60008060008061298c85612af1565b809350819450829550505050600186848484604051600081526020016040526040516129bb9493929190613eb2565b60206040516020810390808403906000865af11580156129df573d6000803e3d6000fd5b50505060206040510351935050505092915050565b336000806101000a81548173ffffffffffffffffffffffffffffffffffffffff021916908373ffffffffffffffffffffffffffffffffffffffff1602179055507f18aef832e845a6d7d8a3a427f315083a52e97c1bbe5260d60c8ef5a2ad48da07612a5d6125e2565b33604051612a6c929190613f13565b60405180910390a1565b60008060006101000a81548173ffffffffffffffffffffffffffffffffffffffff021916908373ffffffffffffffffffffffffffffffffffffffff1602179055507f761a25e15b89033cf8a8dcc43b477e835b13d88340c1ff1f90aa965b7e7027ea6003604051612ae79190613f3e565b60405180910390a1565b60008060008060008060418751141515612b0a57600080fd5b6020870151925060408701519150606087015160001a90508083839550955095505050509193909250565b60a060405190810160405280600590602082028038833980820191505090505090565b61026060405190810160405280600073ffffffffffffffffffffffffffffffffffffffff168152602001600073ffffffffffffffffffffffffffffffffffffffff168152602001600073ffffffffffffffffffffffffffffffffffffffff168152602001612bc4612d65565b8152602001612bd1612d88565b8152602001600080191681526020016000151581526020016000815260200160008152602001600073ffffffffffffffffffffffffffffffffffffffff168152602001600073ffffffffffffffffffffffffffffffffffffffff1681525090565b826005601f01602090048101928215612cba5791602002820160005b83821115612c8b57835183826101000a81548160ff0219169083151502179055509260200192600101602081600001049283019260010302612c4e565b8015612cb85782816101000a81549060ff0219169055600101602081600001049283019260010302612c8b565b505b509050612cc79190612dab565b5090565b826005601f01602090048101928215612d545791602002820160005b83821115612d2557835183826101000a81548160ff021916908360ff1602179055509260200192600101602081600001049283019260010302612ce7565b8015612d525782816101000a81549060ff0219169055600101602081600001049283019260010302612d25565b505b509050612d619190612ddb565b5090565b60a060405190810160405280600590602082028038833980820191505090505090565b60a060405190810160405280600590602082028038833980820191505090505090565b612dd891905b80821115612dd457600081816101000a81549060ff021916905550600101612db1565b5090565b90565b612e0891905b80821115612e0457600081816101000a81549060ff021916905550600101612de1565b5090565b90565b6000612e178235614170565b905092915050565b600082601f8301121515612e3257600080fd5b6005612e45612e4082613fcb565b613f9e565b91508183856020840282011115612e5b57600080fd5b60005b83811015612e8b5781612e718882612f0b565b845260208401935060208301925050600181019050612e5e565b5050505092915050565b600082601f8301121515612ea857600080fd5b6005612ebb612eb682613fed565b613f9e565b91508183856020840282011115612ed157600080fd5b60005b83811015612f015781612ee78882613209565b845260208401935060208301925050600181019050612ed4565b5050505092915050565b6000612f178235614190565b905092915050565b6000612f2b823561419c565b905092915050565b600082601f8301121515612f4657600080fd5b8135612f59612f548261400f565b613f9e565b91508082526020830160208301858383011115612f7557600080fd5b612f808382846141d6565b50505092915050565b6000612f9582356141a6565b905092915050565b600082601f8301121515612fb057600080fd5b8135612fc3612fbe8261403b565b613f9e565b91508082526020830160208301858383011115612fdf57600080fd5b612fea8382846141d6565b50505092915050565b600082601f830112151561300657600080fd5b813561301961301482614067565b613f9e565b9150808252602083016020830185838301111561303557600080fd5b6130408382846141d6565b50505092915050565b600060a0828403121561305b57600080fd5b61306560a0613f9e565b9050600061307584828501613209565b600083015250602061308984828501612f0b565b602083015250604082013567ffffffffffffffff8111156130a957600080fd5b6130b584828501612f9d565b60408301525060606130c984828501612f89565b60608301525060806130dd84828501612e0b565b60808301525092915050565b600061026082840312156130fc57600080fd5b613107610160613f9e565b9050600061311784828501612e0b565b600083015250602061312b84828501612e0b565b602083015250604061313f84828501612e0b565b604083015250606061315384828501612e1f565b60608301525061010061316884828501612e95565b6080830152506101a061317d84828501612f1f565b60a0830152506101c061319284828501612f0b565b60c0830152506101e06131a7848285016131f5565b60e0830152506102006131bc848285016131f5565b610100830152506102206131d284828501612e0b565b610120830152506102406131e884828501612e0b565b6101408301525092915050565b600061320182356141bf565b905092915050565b600061321582356141c9565b905092915050565b60006020828403121561322f57600080fd5b600082013567ffffffffffffffff81111561324957600080fd5b61325584828501612ff3565b91505092915050565b60006020828403121561327057600080fd5b600082013567ffffffffffffffff81111561328a57600080fd5b61329684828501613049565b91505092915050565b600061026082840312156132b257600080fd5b60006132c0848285016130e9565b91505092915050565b60008061028083850312156132dd57600080fd5b60006132eb858286016130e9565b9250506102606132fd85828601612e0b565b9150509250929050565b60008060006102a0848603121561331d57600080fd5b600061332b868287016130e9565b93505061026084013567ffffffffffffffff81111561334957600080fd5b61335586828701612f33565b92505061028084013567ffffffffffffffff81111561337357600080fd5b61337f86828701613049565b9150509250925092565b600080610280838503121561339d57600080fd5b60006133ab858286016130e9565b92505061026083013567ffffffffffffffff8111156133c957600080fd5b6133d585828601613049565b9150509250929050565b6133e881614123565b82525050565b6133f7816140d0565b6134008261409d565b60005b8281101561343257613416858351613b53565b61341f82614109565b9150602085019450600181019050613403565b5050505050565b613442816140c5565b61344b82614093565b60005b8281101561347d57613461858351613b53565b61346a826140fc565b915060208501945060018101905061344e565b5050505050565b61348d816140db565b82613497836140a7565b60005b838110156137b65781546134b6876134b1836141e5565b613b53565b6020870196506134ce876134c98361454e565b613b53565b6020870196506134e6876134e183614300565b613b53565b6020870196506134fe876134f98361449a565b613b53565b60208701965061351687613511836144aa565b613b53565b60208701965061352e87613529836144bb565b613b53565b60208701965061354687613541836144cd565b613b53565b60208701965061355e87613559836144e0565b613b53565b60208701965061357687613571836144f4565b613b53565b60208701965061358e8761358983614509565b613b53565b6020870196506135a6876135a18361451f565b613b53565b6020870196506135be876135b983614536565b613b53565b6020870196506135d6876135d18361455c565b613b53565b6020870196506135ee876135e9836141f2565b613b53565b602087019650613606876136018361420c565b613b53565b60208701965061361e8761361983614227565b613b53565b6020870196506136368761363183614243565b613b53565b60208701965061364e8761364983614260565b613b53565b602087019650613666876136618361427e565b613b53565b60208701965061367e876136798361429d565b613b53565b60208701965061369687613691836142bd565b613b53565b6020870196506136ae876136a9836142de565b613b53565b6020870196506136c6876136c18361430f565b613b53565b6020870196506136de876136d983614332565b613b53565b6020870196506136f6876136f183614356565b613b53565b60208701965061370e876137098361437b565b613b53565b60208701965061372687613721836143a1565b613b53565b60208701965061373e87613739836143c8565b613b53565b60208701965061375687613751836143f0565b613b53565b60208701965061376e8761376983614419565b613b53565b6020870196506137868761378183614443565b613b53565b60208701965061379e876137998361446e565b613b53565b6020870196506001830192505060208101905061349a565b5060208302820194505050505050565b6137cf816140e6565b6137d8826140b1565b60005b8281101561380a576137ee858351613daa565b6137f782614116565b91506020850194506001810190506137db565b5050505050565b61381a816140f1565b82613824836140bb565b60005b83811015613b435781546138438761383e836141e5565b613daa565b60208701965061385b876138568361454e565b613daa565b6020870196506138738761386e83614300565b613daa565b60208701965061388b876138868361449a565b613daa565b6020870196506138a38761389e836144aa565b613daa565b6020870196506138bb876138b6836144bb565b613daa565b6020870196506138d3876138ce836144cd565b613daa565b6020870196506138eb876138e6836144e0565b613daa565b602087019650613903876138fe836144f4565b613daa565b60208701965061391b8761391683614509565b613daa565b6020870196506139338761392e8361451f565b613daa565b60208701965061394b8761394683614536565b613daa565b6020870196506139638761395e8361455c565b613daa565b60208701965061397b87613976836141f2565b613daa565b6020870196506139938761398e8361420c565b613daa565b6020870196506139ab876139a683614227565b613daa565b6020870196506139c3876139be83614243565b613daa565b6020870196506139db876139d683614260565b613daa565b6020870196506139f3876139ee8361427e565b613daa565b602087019650613a0b87613a068361429d565b613daa565b602087019650613a2387613a1e836142bd565b613daa565b602087019650613a3b87613a36836142de565b613daa565b602087019650613a5387613a4e8361430f565b613daa565b602087019650613a6b87613a6683614332565b613daa565b602087019650613a8387613a7e83614356565b613daa565b602087019650613a9b87613a968361437b565b613daa565b602087019650613ab387613aae836143a1565b613daa565b602087019650613acb87613ac6836143c8565b613daa565b602087019650613ae387613ade836143f0565b613daa565b602087019650613afb87613af683614419565b613daa565b602087019650613b1387613b0e83614443565b613daa565b602087019650613b2b87613b268361446e565b613daa565b60208701965060018301925050602081019050613827565b5060208302820194505050505050565b613b5c81614143565b82525050565b613b6b8161414f565b82525050565b61026082016000820151613b8860008501826133df565b506020820151613b9b60208501826133df565b506040820151613bae60408501826133df565b506060820151613bc16060850182613439565b506080820151613bd56101008501826137c6565b5060a0820151613be96101a0850182613b62565b5060c0820151613bfd6101c0850182613b53565b5060e0820151613c116101e0850182613d9b565b50610100820151613c26610200850182613d9b565b50610120820151613c3b6102208501826133df565b50610140820151613c506102408501826133df565b50505050565b61026082016000808301549050613c6c816141e5565b613c7960008601826133df565b5060018301549050613c8a816141e5565b613c9760208601826133df565b5060028301549050613ca8816141e5565b613cb560408601826133df565b5060038301613cc76060860182613484565b5060048301613cda610100860182613811565b5060058301549050613ceb816141e5565b613cf96101a0860182613b62565b5060068301549050613d0a816141e5565b613d186101c0860182613b53565b5060078301549050613d29816141e5565b613d376101e0860182613d9b565b5060088301549050613d48816141e5565b613d56610200860182613d9b565b5060098301549050613d67816141e5565b613d756102208601826133df565b50600a8301549050613d86816141e5565b613d946102408601826133df565b5050505050565b613da481614159565b82525050565b613db381614163565b82525050565b6000602082019050613dce60008301846133df565b92915050565b600061012082019050613dea600083018c6133df565b613df7602083018b6133df565b613e04604083018a6133df565b613e116060830189613b62565b613e1e6080830188613b53565b613e2b60a0830187613d9b565b613e3860c0830186613d9b565b613e4560e08301856133df565b613e536101008301846133df565b9a9950505050505050505050565b600060a082019050613e7660008301846133ee565b92915050565b6000602082019050613e916000830184613b53565b92915050565b6000602082019050613eac6000830184613b62565b92915050565b6000608082019050613ec76000830187613b62565b613ed46020830186613daa565b613ee16040830185613b62565b613eee6060830184613b62565b95945050505050565b600061026082019050613f0d6000830184613b71565b92915050565b600061028082019050613f296000830185613b71565b613f376102608301846133df565b9392505050565b600061026082019050613f546000830184613c56565b92915050565b6000602082019050613f6f6000830184613d9b565b92915050565b6000604082019050613f8a6000830185613d9b565b613f9760208301846133df565b9392505050565b6000604051905081810181811067ffffffffffffffff82111715613fc157600080fd5b8060405250919050565b600067ffffffffffffffff821115613fe257600080fd5b602082029050919050565b600067ffffffffffffffff82111561400457600080fd5b602082029050919050565b600067ffffffffffffffff82111561402657600080fd5b601f19601f8301169050602081019050919050565b600067ffffffffffffffff82111561405257600080fd5b601f19601f8301169050602081019050919050565b600067ffffffffffffffff82111561407e57600080fd5b601f19601f8301169050602081019050919050565b6000819050919050565b6000819050919050565b6000819050919050565b6000819050919050565b6000819050919050565b600060059050919050565b600060059050919050565b600060059050919050565b600060059050919050565b600060059050919050565b6000602082019050919050565b6000602082019050919050565b6000602082019050919050565b600073ffffffffffffffffffffffffffffffffffffffff82169050919050565b60008115159050919050565b6000819050919050565b6000819050919050565b600060ff82169050919050565b600073ffffffffffffffffffffffffffffffffffffffff82169050919050565b60008115159050919050565b6000819050919050565b60006003821015156141b757600080fd5b819050919050565b6000819050919050565b600060ff82169050919050565b82818337600083830152505050565b6000600182049050919050565b60006d010000000000000000000000000082049050919050565b60006e01000000000000000000000000000082049050919050565b60006f0100000000000000000000000000000082049050919050565b600070010000000000000000000000000000000082049050919050565b60007101000000000000000000000000000000000082049050919050565b6000720100000000000000000000000000000000000082049050919050565b600073010000000000000000000000000000000000000082049050919050565b60007401000000000000000000000000000000000000000082049050919050565b6000750100000000000000000000000000000000000000000082049050919050565b60006201000082049050919050565b600076010000000000000000000000000000000000000000000082049050919050565b60007701000000000000000000000000000000000000000000000082049050919050565b6000780100000000000000000000000000000000000000000000000082049050919050565b600079010000000000000000000000000000000000000000000000000082049050919050565b60007a01000000000000000000000000000000000000000000000000000082049050919050565b60007b0100000000000000000000000000000000000000000000000000000082049050919050565b60007c010000000000000000000000000000000000000000000000000000000082049050919050565b60007d01000000000000000000000000000000000000000000000000000000000082049050919050565b60007e0100000000000000000000000000000000000000000000000000000000000082049050919050565b60007f010000000000000000000000000000000000000000000000000000000000000082049050919050565b6000630100000082049050919050565b600064010000000082049050919050565b60006501000000000082049050919050565b6000660100000000000082049050919050565b600067010000000000000082049050919050565b60006801000000000000000082049050919050565b6000690100000000000000000082049050919050565b60006a010000000000000000000082049050919050565b60006b01000000000000000000000082049050919050565b600061010082049050919050565b60006c01000000000000000000000000820490509190505600a265627a7a72305820b73ea7d70c1dd750e4ca93f46908c276f1108825f9f8c486ded0367d517827c16c6578706572696d656e74616cf50037",
  "source": "pragma solidity ^0.4.23;\npragma experimental ABIEncoderV2;\n\ncontract GuessNumber {\n  enum ActionType {\n      GUESS, CLUE, REVEAL\n  }\n  struct Action{\n    uint8 guess;\n    bool clue;\n    string secret;\n    ActionType actionType;\n    address sender;\n  }\n  \n    address public disputer;\n    uint256 timeoutInterval;\n    uint256  public timeout;\n  \n  struct GameState {\n      address whoseTurn;\n      address guesser;\n      address dealer;\n      bool[5] clues;\n      uint8[5] guesses;\n      bytes32 secretHash;\n      bool gameStarted;\n      uint stake;\n      uint seq;\n      address winner;\n      address contractAddress;\n  }\n  GameState public onChainState;\n\n  event AcceptGame(GameState gameState);\n  event StartDispute(GameState gameState, address starter);\n  event EndDispute(GameState gameState);\n  event UpdateTimeout(uint256 newTimeout, address whoseTurn);\n\n\n\n  constructor(bytes32 _secretHash) public payable {\n    require(msg.value > 0);\n    uint8[5] tempGuesses;\n    bool[5]  tempClues;\n      \n    onChainState = GameState({\n        whoseTurn: msg.sender,\n        guesser: address(0),\n        dealer: msg.sender,\n        clues:tempClues,\n        guesses: tempGuesses,\n        secretHash: _secretHash,\n        gameStarted: false,\n        stake: msg.value,\n        seq: 0,\n        winner: address(0),\n        contractAddress: address(this)\n\n    });\n        timeoutInterval = 3600;\n        timeout =  2**256 - 1;\n  }\n  \n    \n//   during a dispate: making a move directly ends it happily\n// jumping to a DIFFERNT later or = state leads to slashing\n// starting a dispute means jumping to state (and possibly aslo moving), or just moving\n\n  function applyActionToChainState(Action action) public payout updateTimeout {\n    //   ensure sender is the real sender:(require it instead of overwriting? whatever)\n    action.sender = msg.sender;\n    onChainState = applyAction(onChainState, action);\n    if (disputer == opponentOf (onChainState, msg.sender)){\n        endDispute();\n    } else if (disputer == address(0)){\n        startDispute();\n    }\n  }\n\n//   TODO is this safe, i.e, private should be impossible to call directly?\n  function startDispute() private  {\n       disputer = msg.sender;\n       emit StartDispute(getOnChainState(), msg.sender);\n  }\n\n    function endDispute() private  {\n       disputer = address(0);\n       emit EndDispute(onChainState);\n  }\n\n  \n  function getOnChainState() public view returns(GameState){\n      return onChainState;\n  }\n\n  function stateToFullDigest(GameState gameState) public pure returns (bytes32){\n        bytes32 inputAppHash = stateToHash(gameState);\n        // TODO: purify address this\n        return prefixed(keccak256(gameState.contractAddress, inputAppHash));\n  }\n\n//   Might not need this?\n   function stateToHash(GameState gameState) public pure returns (bytes32){\n        return keccak256(abi.encode(gameState));\n  }\n\n  function jumpToStateOnChain(GameState gameState, bytes sig, Action action) public payout updateTimeout returns (bool){\n    bytes32 inputStateHash = stateToFullDigest(gameState);\n    require(recoverSigner(inputStateHash, sig) == opponentOf(gameState, msg.sender));\n    \n    // happy case: players agreed on winner, stop here\n    if (gameState.winner != address(0) ){\n        return true;\n    }\n    \n    require(gameState.seq >= onChainState.seq);\n    // for dispute, but may as well always check: don't jump to redundant state (player could have honestly applied action)\n    require(stateToFullDigest(onChainState) != stateToFullDigest(gameState));\n\n\n    \n    if (disputer == address(0)){\n        onChainState = gameState;\n        // if initiating a dispute at current turn, have to make a move in same transaction (if not, or if this is settling a dispute, action can be a dummy action)\n        if (onChainState.whoseTurn == msg.sender){\n            applyActionToChainState(action);\n        }\n        startDispute();\n    } else if (disputer == opponentOf(gameState, msg.sender)){\n        onChainState.winner = msg.sender;\n    }\n \n    return true;\n  }\n  \n      modifier updateTimeout (){\n        timeout = now + timeoutInterval;\n        emit UpdateTimeout(timeout, onChainState.whoseTurn);\n        _;\n    }\n    \n    function claimTimeout() payout payable{\n        require(onChainState.winner == address(0));\n        require(onChainState.whoseTurn == opponentOf(onChainState, msg.sender));\n        require(now > timeout);\n        onChainState.winner = msg.sender;\n    }\n\n    function test(string s) returns(bytes32){\n        return keccak256(s);\n    }\n\n    function testGetClues() public returns (bool[5]){\n        return onChainState.clues;\n    }\n    \n       function stringToUint(string s) constant returns (uint result) {\n        bytes memory b = bytes(s);\n        uint i;\n        result = 0;\n        for (i = 0; i < b.length; i++) {\n            uint c = uint(b[i]);\n            if (c >= 48 && c <= 57) {\n                result = result * 10 + (c - 48);\n            }\n        }\n    }\n\n  modifier payout() {\n      _;\n      if(onChainState.winner!= address(0)) {\n          onChainState.winner.transfer(address(this).balance);\n          onChainState.gameStarted = false;\n      }\n  }\n  \n  \n    function acceptGame() public payable updateTimeout {\n      require(msg.value >= onChainState.stake);\n      require(!onChainState.gameStarted);\n      onChainState.gameStarted = true;\n      onChainState.whoseTurn = msg.sender;\n      onChainState.guesser = msg.sender;\n      emit AcceptGame(getOnChainState());\n  }\n  \n    function applyAction(GameState gameState, Action action)public view turnTaker(gameState, action.sender) returns(GameState){\n      if(action.actionType == ActionType.GUESS){\n          return submitGuess(gameState, action);\n      } else if (action.actionType == ActionType.CLUE){\n          return submitClue(gameState, action);\n      } else if (action.actionType == ActionType.REVEAL){\n          return reveal(gameState, action);\n      }\n\n  }\n  \n  function submitGuess( GameState gameState, Action action) pure public returns  (GameState){\n        require(action.guess < 100);\n        require(action.guess > 0);\n        gameState.guesses[gameState.seq/2] = action.guess;\n        return gameState;\n  }\n    function submitClue( GameState gameState, Action action) pure public returns  (GameState){\n        // todo: divide by 2 7 round down\n        require(gameState.seq < 10);\n        gameState.clues[gameState.seq/2] = action.clue;\n        return gameState;\n  }\n  \n  function reveal(GameState gameState, Action action) returns (GameState){\n    //   why do I have this?\n    //   require(msg.sender == gameState.dealer);\n      if (keccak256(action.secret) != gameState.secretHash ){\n          gameState.winner = opponentOf(gameState, action.sender);\n     \n      } else {\n             //   getnumber\n          uint winningNumber = stringToUint(action.secret) % 100;\n          uint8 currentGuess;\n          bool currentClue;\n          for (uint i=0; i<gameState.guesses.length; i++) {\n              \n            currentGuess = gameState.guesses[i];\n            currentClue = gameState.clues[i];\n            \n            if (currentGuess == winningNumber || currentGuess==0){\n                gameState.winner = gameState.guesser;\n                return gameState;\n            }\n    \n            \n            if ( (currentGuess < winningNumber && currentClue) ||(currentGuess > winningNumber && !currentClue) ) {\n                gameState.winner = gameState.guesser;\n                return gameState;\n            }\n          }\n        // TODO edgecase for if he doesn't submit last clue ? meh\n        // if gueser didn't make all of his guesses yet, guesser wins (check for zeros? requrie this up front)\n        // otherwise, dealer wins,\n      }\n           return gameState;\n  }\n    \n    function opponentOf(GameState gameState, address player)public pure returns(address){\n        if (player == gameState.dealer){\n            return gameState.guesser;\n        } else if (player== gameState.guesser){\n            return gameState.dealer;\n        }\n        require(false);\n    }\n    \n\n      \n  \n  modifier turnTaker(GameState gameState, address sender) {\n      require(gameState.winner == address(0));\n      require(sender == gameState.whoseTurn);\n      require(gameState.gameStarted);\n      gameState.seq++;\n      gameState.whoseTurn = opponentOf(gameState, sender);\n      _;    \n  }\n  \n      // Signature methods\n\n    function splitSignature(bytes sig)\n        internal\n        pure\n        returns (uint8, bytes32, bytes32)\n    {\n        require(sig.length == 65);\n\n        bytes32 r;\n        bytes32 s;\n        uint8 v;\n\n        assembly {\n            // first 32 bytes, after the length prefix\n            r := mload(add(sig, 32))\n            // second 32 bytes\n            s := mload(add(sig, 64))\n            // final byte (first byte of the next 32 bytes)\n            v := byte(0, mload(add(sig, 96)))\n        }\n\n        return (v, r, s);\n    }\n\n    function recoverSigner(bytes32 message, bytes sig)\n        internal\n        pure\n        returns (address)\n    {\n        uint8 v;\n        bytes32 r;\n        bytes32 s;\n\n        (v, r, s) = splitSignature(sig);\n\n        return ecrecover(message, v, r, s);\n    }\n\n    // Builds a prefixed hash to mimic the behavior of eth_sign.\n    function prefixed(bytes32 hash) internal pure returns (bytes32) {\n        return keccak256(\"\\x19Ethereum Signed Message:\\n32\", hash);\n    }\n\n \n}\n",
  "sourcePath": "/Users/DZack/Boilerplates/guess_app/contracts/GuessNumber.sol",
  "compiler": {
    "name": "solc",
    "version": "0.4.23+commit.124ca40d.Emscripten.clang"
  },
  "schemaVersion": "2.0.0",
  "updatedAt": "2018-12-05T01:35:34.524Z"
}