{
  "contractName": "SimpleStorage",
  "abi": [
    {
      "inputs": [],
      "payable": false,
      "stateMutability": "nonpayable",
      "type": "constructor"
    },
    {
      "constant": false,
      "inputs": [
        {
          "name": "x",
          "type": "uint256"
        }
      ],
      "name": "set",
      "outputs": [],
      "payable": false,
      "stateMutability": "nonpayable",
      "type": "function"
    },
    {
      "constant": true,
      "inputs": [],
      "name": "get",
      "outputs": [
        {
          "name": "",
          "type": "uint256"
        }
      ],
      "payable": false,
      "stateMutability": "view",
      "type": "function"
    },
    {
      "constant": true,
      "inputs": [],
      "name": "getAction",
      "outputs": [
        {
          "components": [
            {
              "name": "actionType",
              "type": "string"
            },
            {
              "name": "arrayTest",
              "type": "bool[3]"
            },
            {
              "name": "arrayTest2",
              "type": "bool[20]"
            },
            {
              "name": "arrayTest3",
              "type": "uint8[3]"
            },
            {
              "name": "arrayTest4",
              "type": "string[3]"
            },
            {
              "name": "arrayTest5",
              "type": "bool[20]"
            },
            {
              "name": "arrayTest6",
              "type": "bool[20]"
            },
            {
              "name": "arrayTest7",
              "type": "bool[20]"
            },
            {
              "name": "arrayTest8",
              "type": "bool[20]"
            },
            {
              "name": "arrayTest9",
              "type": "bool[20]"
            },
            {
              "name": "arrayTest10",
              "type": "bool[20]"
            }
          ],
          "name": "a",
          "type": "tuple"
        }
      ],
      "payable": false,
      "stateMutability": "view",
      "type": "function"
    },
    {
      "constant": true,
      "inputs": [
        {
          "components": [
            {
              "name": "actionType",
              "type": "string"
            },
            {
              "name": "arrayTest",
              "type": "bool[3]"
            },
            {
              "name": "arrayTest2",
              "type": "bool[20]"
            },
            {
              "name": "arrayTest3",
              "type": "uint8[3]"
            },
            {
              "name": "arrayTest4",
              "type": "string[3]"
            },
            {
              "name": "arrayTest5",
              "type": "bool[20]"
            },
            {
              "name": "arrayTest6",
              "type": "bool[20]"
            },
            {
              "name": "arrayTest7",
              "type": "bool[20]"
            },
            {
              "name": "arrayTest8",
              "type": "bool[20]"
            },
            {
              "name": "arrayTest9",
              "type": "bool[20]"
            },
            {
              "name": "arrayTest10",
              "type": "bool[20]"
            }
          ],
          "name": "a",
          "type": "tuple"
        }
      ],
      "name": "giveAction",
      "outputs": [
        {
          "name": "atype",
          "type": "string"
        }
      ],
      "payable": false,
      "stateMutability": "view",
      "type": "function"
    },
    {
      "constant": false,
      "inputs": [],
      "name": "giveStr",
      "outputs": [
        {
          "name": "z",
          "type": "string"
        }
      ],
      "payable": false,
      "stateMutability": "nonpayable",
      "type": "function"
    },
    {
      "constant": false,
      "inputs": [],
      "name": "modifyBoolArray",
      "outputs": [],
      "payable": false,
      "stateMutability": "nonpayable",
      "type": "function"
    }
  ],
  "bytecode": "0x60806040523480156200001157600080fd5b50610160604051908101604052806040805190810160405280600c81526020017f68656c6c6f7720776f726c64000000000000000000000000000000000000000081525081526020016060604051908101604052806001151515158152602001600015151515815260200160011515151581525081526020016102806040519081016040528060011515151581526020016000151515158152602001600115151515815260200160001515151581526020016001151515158152602001600015151515815260200160011515151581526020016000151515158152602001600115151515815260200160001515151581526020016001151515158152602001600015151515815260200160011515151581526020016000151515158152602001600115151515815260200160001515151581526020016001151515158152602001600015151515815260200160011515151581526020016000151515158152508152602001606060405190810160405280600160ff168152602001600260ff168152602001600360ff1681525081526020016060604051908101604052806040805190810160405280600181526020017f610000000000000000000000000000000000000000000000000000000000000081525081526020016040805190810160405280600181526020017f620000000000000000000000000000000000000000000000000000000000000081525081526020016040805190810160405280600181526020017f640000000000000000000000000000000000000000000000000000000000000081525081525081526020016102806040519081016040528060011515151581526020016000151515158152602001600115151515815260200160001515151581526020016001151515158152602001600015151515815260200160011515151581526020016000151515158152602001600115151515815260200160001515151581526020016001151515158152602001600015151515815260200160011515151581526020016000151515158152602001600115151515815260200160001515151581526020016001151515158152602001600015151515815260200160011515151581526020016000151515158152508152602001610280604051908101604052806001151515158152602001600015151515815260200160011515151581526020016000151515158152602001600115151515815260200160001515151581526020016001151515158152602001600015151515815260200160011515151581526020016000151515158152602001600115151515815260200160001515151581526020016001151515158152602001600015151515815260200160011515151581526020016000151515158152602001600115151515815260200160001515151581526020016001151515158152602001600015151515815250815260200161028060405190810160405280600115151515815260200160001515151581526020016001151515158152602001600015151515815260200160011515151581526020016000151515158152602001600115151515815260200160001515151581526020016001151515158152602001600015151515815260200160011515151581526020016000151515158152602001600115151515815260200160001515151581526020016001151515158152602001600015151515815260200160011515151581526020016000151515158152602001600115151515815260200160001515151581525081526020016102806040519081016040528060011515151581526020016000151515158152602001600115151515815260200160001515151581526020016001151515158152602001600015151515815260200160011515151581526020016000151515158152602001600115151515815260200160001515151581526020016001151515158152602001600015151515815260200160011515151581526020016000151515158152602001600115151515815260200160001515151581526020016001151515158152602001600015151515815260200160011515151581526020016000151515158152508152602001610280604051908101604052806001151515158152602001600015151515815260200160011515151581526020016000151515158152602001600115151515815260200160001515151581526020016001151515158152602001600015151515815260200160011515151581526020016000151515158152602001600115151515815260200160001515151581526020016001151515158152602001600015151515815260200160011515151581526020016000151515158152602001600115151515815260200160001515151581526020016001151515158152602001600015151515815250815260200161028060405190810160405280600115151515815260200160001515151581526020016001151515158152602001600015151515815260200160011515151581526020016000151515158152602001600115151515815260200160001515151581526020016001151515158152602001600015151515815260200160011515151581526020016000151515158152602001600115151515815260200160001515151581526020016001151515158152602001600015151515815260200160011515151581526020016000151515158152602001600115151515815260200160001515151581525081525060016000820151816000019080519060200190620008099291906200091a565b5060208201518160010190600362000823929190620009a1565b506040820151816002019060146200083d92919062000a41565b506060820151816003019060036200085792919062000ae1565b506080820151816004019060036200087192919062000b82565b5060a0820151816007019060146200088b92919062000a41565b5060c082015181600801906014620008a592919062000a41565b5060e082015181600901906014620008bf92919062000a41565b5061010082015181600a01906014620008da92919062000a41565b5061012082015181600b01906014620008f592919062000a41565b5061014082015181600c019060146200091092919062000a41565b5090505062000ce7565b828054600181600116156101000203166002900490600052602060002090601f016020900481019282601f106200095d57805160ff19168380011785556200098e565b828001600101855582156200098e579182015b828111156200098d57825182559160200191906001019062000970565b5b5090506200099d919062000bdc565b5090565b826003601f0160209004810192821562000a2e5791602002820160005b83821115620009fd57835183826101000a81548160ff0219169083151502179055509260200192600101602081600001049283019260010302620009be565b801562000a2c5782816101000a81549060ff0219169055600101602081600001049283019260010302620009fd565b505b50905062000a3d919062000c04565b5090565b826014601f0160209004810192821562000ace5791602002820160005b8382111562000a9d57835183826101000a81548160ff021916908315150217905550926020019260010160208160000104928301926001030262000a5e565b801562000acc5782816101000a81549060ff021916905560010160208160000104928301926001030262000a9d565b505b50905062000add919062000c04565b5090565b826003601f0160209004810192821562000b6f5791602002820160005b8382111562000b3e57835183826101000a81548160ff021916908360ff160217905550926020019260010160208160000104928301926001030262000afe565b801562000b6d5782816101000a81549060ff021916905560010160208160000104928301926001030262000b3e565b505b50905062000b7e919062000c37565b5090565b826003810192821562000bc9579160200282015b8281111562000bc857825182908051906020019062000bb79291906200091a565b509160200191906001019062000b96565b5b50905062000bd8919062000c6a565b5090565b62000c0191905b8082111562000bfd57600081600090555060010162000be3565b5090565b90565b62000c3491905b8082111562000c3057600081816101000a81549060ff02191690555060010162000c0b565b5090565b90565b62000c6791905b8082111562000c6357600081816101000a81549060ff02191690555060010162000c3e565b5090565b90565b62000c9891905b8082111562000c94576000818162000c8a919062000c9b565b5060010162000c71565b5090565b90565b50805460018160011615610100020316600290046000825580601f1062000cc3575062000ce4565b601f01602090049060005260206000209081019062000ce3919062000bdc565b5b50565b6112a38062000cf76000396000f300608060405260043610610078576000357c0100000000000000000000000000000000000000000000000000000000900463ffffffff16806326e1aab71461007d57806360fe47b1146100a85780636d4ce63c146100d1578063a4d43628146100fc578063cc59ab6314610139578063db5ed0a014610150575b600080fd5b34801561008957600080fd5b5061009261017b565b60405161009f9190611014565b60405180910390f35b3480156100b457600080fd5b506100cf60048036036100ca9190810190610cef565b6106cb565b005b3480156100dd57600080fd5b506100e66106d5565b6040516100f39190611036565b60405180910390f35b34801561010857600080fd5b50610123600480360361011e9190810190610cae565b6106de565b6040516101309190610ff2565b60405180910390f35b34801561014557600080fd5b5061014e6106ec565b005b34801561015c57600080fd5b50610165610748565b6040516101729190610ff2565b60405180910390f35b6101836107ed565b60016101606040519081016040529081600082018054600181600116156101000203166002900480601f01602080910402602001604051908101604052809291908181526020018280546001816001161561010002031660029004801561022b5780601f106102005761010080835404028352916020019161022b565b820191906000526020600020905b81548152906001019060200180831161020e57829003601f168201915b5050505050815260200160018201600380602002604051908101604052809291908260038015610295576020028201916000905b82829054906101000a900460ff1615158152602001906001019060208260000104928301926001038202915080841161025f5790505b50505050508152602001600282016014806020026040519081016040528092919082601480156102ff576020028201916000905b82829054906101000a900460ff161515815260200190600101906020826000010492830192600103820291508084116102c95790505b505050505081526020016003820160038060200260405190810160405280929190826003801561036a576020028201916000905b82829054906101000a900460ff1660ff16815260200190600101906020826000010492830192600103820291508084116103335790505b5050505050815260200160048201600380602002604051908101604052809291906000905b82821015610442578382018054600181600116156101000203166002900480601f01602080910402602001604051908101604052809291908181526020018280546001816001161561010002031660029004801561042e5780601f106104035761010080835404028352916020019161042e565b820191906000526020600020905b81548152906001019060200180831161041157829003601f168201915b50505050508152602001906001019061038f565b505050508152602001600782016014806020026040519081016040528092919082601480156104ab576020028201916000905b82829054906101000a900460ff161515815260200190600101906020826000010492830192600103820291508084116104755790505b5050505050815260200160088201601480602002604051908101604052809291908260148015610515576020028201916000905b82829054906101000a900460ff161515815260200190600101906020826000010492830192600103820291508084116104df5790505b505050505081526020016009820160148060200260405190810160405280929190826014801561057f576020028201916000905b82829054906101000a900460ff161515815260200190600101906020826000010492830192600103820291508084116105495790505b50505050508152602001600a82016014806020026040519081016040528092919082601480156105e9576020028201916000905b82829054906101000a900460ff161515815260200190600101906020826000010492830192600103820291508084116105b35790505b50505050508152602001600b8201601480602002604051908101604052809291908260148015610653576020028201916000905b82829054906101000a900460ff1615158152602001906001019060208260000104928301926001038202915080841161061d5790505b50505050508152602001600c82016014806020026040519081016040528092919082601480156106bd576020028201916000905b82829054906101000a900460ff161515815260200190600101906020826000010492830192600103820291508084116106875790505b505050505081525050905090565b8060008190555050565b60008054905090565b606081600001519050919050565b6001800160006003811015156106fe57fe5b602091828204019190069054906101000a900460ff161560018001600060038110151561072757fe5b602091828204019190066101000a81548160ff021916908315150217905550565b606060016000018054600181600116156101000203166002900480601f0160208091040260200160405190810160405280929190818152602001828054600181600116156101000203166002900480156107e35780601f106107b8576101008083540402835291602001916107e3565b820191906000526020600020905b8154815290600101906020018083116107c657829003601f168201915b5050505050905090565b6112c06040519081016040528060608152602001610809610884565b81526020016108166108a7565b81526020016108236108cb565b81526020016108306108ee565b815260200161083d6108a7565b815260200161084a6108a7565b81526020016108576108a7565b81526020016108646108a7565b81526020016108716108a7565b815260200161087e6108a7565b81525090565b606060405190810160405280600390602082028038833980820191505090505090565b61028060405190810160405280601490602082028038833980820191505090505090565b606060405190810160405280600390602082028038833980820191505090505090565b6060604051908101604052806003905b60608152602001906001900390816108fe5790505090565b600082601f830112151561092957600080fd5b601461093c6109378261107e565b611051565b9150818385602084028201111561095257600080fd5b60005b8381101561098257816109688882610adf565b845260208401935060208301925050600181019050610955565b5050505092915050565b600082601f830112151561099f57600080fd5b60036109b26109ad826110a0565b611051565b915081838560208402820111156109c857600080fd5b60005b838110156109f857816109de8882610adf565b8452602084019350602083019250506001810190506109cb565b5050505092915050565b600082601f8301121515610a1557600080fd5b6003610a28610a23826110c2565b611051565b9150818360005b83811015610a5f5781358601610a458882610af3565b845260208401935060208301925050600181019050610a2f565b5050505092915050565b600082601f8301121515610a7c57600080fd5b6003610a8f610a8a826110e4565b611051565b91508183856020840282011115610aa557600080fd5b60005b83811015610ad55781610abb8882610c9a565b845260208401935060208301925050600181019050610aa8565b5050505092915050565b6000610aeb82356111f3565b905092915050565b600082601f8301121515610b0657600080fd5b8135610b19610b1482611106565b611051565b91508082526020830160208301858383011115610b3557600080fd5b610b40838284611216565b50505092915050565b60006112808284031215610b5c57600080fd5b610b67610160611051565b9050600082013567ffffffffffffffff811115610b8357600080fd5b610b8f84828501610af3565b6000830152506020610ba38482850161098c565b6020830152506080610bb784828501610916565b604083015250610300610bcc84828501610a69565b60608301525061036082013567ffffffffffffffff811115610bed57600080fd5b610bf984828501610a02565b608083015250610380610c0e84828501610916565b60a083015250610600610c2384828501610916565b60c083015250610880610c3884828501610916565b60e083015250610b00610c4d84828501610916565b61010083015250610d80610c6384828501610916565b61012083015250611000610c7984828501610916565b6101408301525092915050565b6000610c9282356111ff565b905092915050565b6000610ca68235611209565b905092915050565b600060208284031215610cc057600080fd5b600082013567ffffffffffffffff811115610cda57600080fd5b610ce684828501610b49565b91505092915050565b600060208284031215610d0157600080fd5b6000610d0f84828501610c86565b91505092915050565b610d218161115a565b610d2a82611132565b60005b82811015610d5c57610d40858351610e5e565b610d498261119c565b9150602085019450600181019050610d2d565b5050505050565b610d6c81611165565b610d758261113c565b60005b82811015610da757610d8b858351610e5e565b610d94826111a9565b9150602085019450600181019050610d78565b5050505050565b6000610db982611170565b83602082028501610dc985611146565b60005b84811015610e02578383038852610de4838351610ea3565b9250610def826111b6565b9150602088019750600181019050610dcc565b508196508694505050505092915050565b610e1c8161117b565b610e2582611150565b60005b82811015610e5757610e3b858351610fe3565b610e44826111c3565b9150602085019450600181019050610e28565b5050505050565b610e67816111d0565b82525050565b6000610e7882611191565b808452610e8c816020860160208601611225565b610e9581611258565b602085010191505092915050565b6000610eae82611186565b808452610ec2816020860160208601611225565b610ecb81611258565b602085010191505092915050565b6000611280830160008301518482036000860152610ef78282610ea3565b9150506020830151610f0c6020860182610d63565b506040830151610f1f6080860182610d18565b506060830151610f33610300860182610e13565b506080830151848203610360860152610f4c8282610dae565b91505060a0830151610f62610380860182610d18565b5060c0830151610f76610600860182610d18565b5060e0830151610f8a610880860182610d18565b50610100830151610f9f610b00860182610d18565b50610120830151610fb4610d80860182610d18565b50610140830151610fc9611000860182610d18565b508091505092915050565b610fdd816111dc565b82525050565b610fec816111e6565b82525050565b6000602082019050818103600083015261100c8184610e6d565b905092915050565b6000602082019050818103600083015261102e8184610ed9565b905092915050565b600060208201905061104b6000830184610fd4565b92915050565b6000604051905081810181811067ffffffffffffffff8211171561107457600080fd5b8060405250919050565b600067ffffffffffffffff82111561109557600080fd5b602082029050919050565b600067ffffffffffffffff8211156110b757600080fd5b602082029050919050565b600067ffffffffffffffff8211156110d957600080fd5b602082029050919050565b600067ffffffffffffffff8211156110fb57600080fd5b602082029050919050565b600067ffffffffffffffff82111561111d57600080fd5b601f19601f8301169050602081019050919050565b6000819050919050565b6000819050919050565b6000819050919050565b6000819050919050565b600060149050919050565b600060039050919050565b600060039050919050565b600060039050919050565b600081519050919050565b600081519050919050565b6000602082019050919050565b6000602082019050919050565b6000602082019050919050565b6000602082019050919050565b60008115159050919050565b6000819050919050565b600060ff82169050919050565b60008115159050919050565b6000819050919050565b600060ff82169050919050565b82818337600083830152505050565b60005b83811015611243578082015181840152602081019050611228565b83811115611252576000848401525b50505050565b6000601f19601f83011690509190505600a265627a7a72305820e906e4645338e685db6c0c805a5b20dfc14d18b12749290265d9f35279baecaf6c6578706572696d656e74616cf50037",
  "source": "pragma solidity ^0.4.23;\npragma experimental ABIEncoderV2;\n\ncontract SimpleStorage {\n  struct Action{\n    string actionType;\n    bool[3] arrayTest;\n    bool[20] arrayTest2;\n    uint8[3] arrayTest3;\n    string[3] arrayTest4;\n       bool[20] arrayTest5;\n          bool[20] arrayTest6;\n             bool[20] arrayTest7;\n                bool[20] arrayTest8;\n                   bool[20] arrayTest9;\n                      bool[20] arrayTest10;\n  }\n  uint storedData;\n  Action action;\n  bool[10] boolArray;\n  struct GameState {\n      address whoseTurn;\n      address guesser;\n      address dealer;\n      bool[5] clues;\n      uint8[5] guesses;\n      bytes32 secretHash;\n      bool gameStarted;\n      uint stake;\n      uint seq;\n      address winner;\n  }\n\n  \n  constructor(){\n    action = Action({\n      actionType: \"hellow world\",\n      arrayTest: [true, false, true],\n      arrayTest2: [true, false, true, false, true, false, true, false, true, false, true, false, true, false, true, false, true, false, true, false ],\n      arrayTest3: [1,2,3],\n      arrayTest4: ['a', 'b', 'd'],\n      arrayTest5: [true, false, true, false, true, false, true, false, true, false, true, false, true, false, true, false, true, false, true, false ],\n      arrayTest6: [true, false, true, false, true, false, true, false, true, false, true, false, true, false, true, false, true, false, true, false ],\n      arrayTest7: [true, false, true, false, true, false, true, false, true, false, true, false, true, false, true, false, true, false, true, false ],\n      arrayTest8: [true, false, true, false, true, false, true, false, true, false, true, false, true, false, true, false, true, false, true, false ],\n      arrayTest9: [true, false, true, false, true, false, true, false, true, false, true, false, true, false, true, false, true, false, true, false ],\n      arrayTest10: [true, false, true, false, true, false, true, false, true, false, true, false, true, false, true, false, true, false, true, false ]\n\n\n    });\n    \n  }\n  function set(uint x) public {\n    storedData = x;\n  }\n\n  function get() public view returns (uint) {\n    return storedData;\n  }\n\n  function getAction() public view returns (Action a){\n    return action;\n  }\n\n  function giveAction(Action a) public view returns (string atype){\n    return a.actionType;\n  }\n\n  function giveStr() public returns (string z){\n    return action.actionType;\n  }\n\n  function modifyBoolArray() public{\n    action.arrayTest[0] = !action.arrayTest[0];\n  }\n}\n",
  "sourcePath": "/Users/DZack/Boilerplates/guess_app/contracts/SimpleStorage.sol",
  "compiler": {
    "name": "solc",
    "version": "0.4.23+commit.124ca40d.Emscripten.clang"
  },
  "schemaVersion": "2.0.0",
  "updatedAt": "2018-12-03T22:18:06.423Z"
}